:100000000C944C010C947D010C947D010C947D01A9
:100010000C947D010C947D010C947D010C947D0168
:100020000C947D010C947D010C947D010C947D0158
:100030000C947D010C947D010C947D010C947D0148
:100040000C947D010C947D010C947D010C947D0138
:100050000C947D010C947D010C947D010C943D0762
:100060000C947D010C9421060C9457060C947D0190
:100070000C947D010C947D010C947D010C947D0108
:100080000C947D010C947D010C947D010C947D01F8
:100090000C947D010C947D010C947D010C947D01E8
:1000A0000C947D010C947D010C947D010C947D01D8
:1000B0000C947D010C947D010C947D010C947D01C8
:1000C0000C947D010C947D010C947D010C947D01B8
:1000D0000C947D010C947D010C947D010C947D01A8
:1000E0000C947D010E081108000804080A0848084D
:1000F000150819081F08230827082D083108350896
:1001000048083B083F0843080C9448080C9415081D
:100110000C94DA040C94AD040C942D080C94430850
:100120000C9427080C945A050C9400080C94810632
:100130000C94B8040C9423080C94CE060C9411086B
:100140000C9404080C940E080C940A080C94A60451
:100150000C9435080C94C6040C943F080C943B088E
:100160000C941F080C9438050C9419080C94310851
:100170000C948B0600000A0B02090C0D0E080703F5
:10018000040100000000000000000000000000006A
:10019000000000000000000000000000000000005F
:1001A000121110000000000000000000000000001C
:1001B00000000000000000000000010210202008E4
:1001C00008102040102040800201020108040201B2
:1001D0000102040810204080804020100804020121
:1001E000800402018040201008040201080402017A
:1001F0000102040810204080010204081020408001
:1002000005050505070508080808020202020A0A92
:1002100008080404040401010101010101010303B0
:10022000030303030303040707070C0C0C0C0C0C5B
:100230000C0C0202020206060606060606060B0B58
:100240000B0B0B0B0B0B00002000230026002900DA
:100250002C002F00320000010000030106010901FB
:1002600000002200250028002B002E003100340061
:1002700002010000050108010B010000210024001B
:1002800027002A002D003000330001010000040186
:1002900007010A01A6048B0611241FBECFEFD1E28D
:1002A000DEBFCDBF00E00CBF12E0A0E0B2E0EEE4A4
:1002B000F5E100E00BBF02C007900D92AE31B1072F
:1002C000D9F722E0AEE1B2E001C01D92A43DB20731
:1002D000E1F712E0C8E9D2E000E006C02297010988
:1002E000FE010BBF0E945709C439D10780E00807FF
:1002F000A9F70E9497040C94A50A0C940000DC0155
:10030000ED91FC910190F081E02D1994FC0188E5BC
:10031000828741877087678308954F925F926F92BB
:100320007F92AF92BF92CF92DF92EF92FF920F93A4
:100330001F93CF932A013B011F921F921F92CFE779
:10034000CF936AE0A62EB12CC12CD12C14E8E12E5B
:1003500013E0F12E00E010E020E030E0A901C3013D
:10036000B2010E94F6060F900F900F900F9097FF2A
:100370001FC01F921F921F92CFE7CF934AE0A42E77
:10038000B12CC12CD12C14E8E12E13E0F12E00E0A9
:1003900010E020E030E0A901C301B2010E94F6069E
:1003A0000F900F900F900F9097FF23C080E03CC0FC
:1003B0001F921F921F92CF932AE0A22EB12CC12C24
:1003C000D12C14E8E12E13E0F12E00E010E020E043
:1003D00030E0A901C301B2010E94F6060F900F9010
:1003E0000F900F90603871058105910514F28FE729
:1003F0001BC01F921F921F92CF938AE0A82EB12C90
:10040000C12CD12C14E8E12E13E0F12E00E010E015
:1004100020E030E0A901C301B2010E94F6060F906E
:100420000F900F900F90862FCF911F910F91FF90FB
:10043000EF90DF90CF90BF90AF907F906F905F90E4
:100440004F900895FC01868190E0860F911D618593
:1004500070E00E94F1080780F085E02DE80FF91F99
:10046000808108956F927F929F92AF92BF92CF92B8
:10047000DF92EF92FF920F931F93CF93DF93EC01E4
:100480001E82E12CF12CB12CAA24A394898590E042
:10049000E816F9060CF084C010E0212F30E08985C1
:1004A00090E00197612F2817390744F4CE010E948C
:1004B000220260E00E9482081F5FEFCFCE010E94FF
:1004C000220261E00E94820810E0212F30E089853D
:1004D00090E00197281739074CF4612FCE010E9454
:1004E000220260E00E9449081F5FEFCF9B2C692D1C
:1004F0006B19262F30E0898590E00197281739077E
:10050000ACF58CE0989E80011124E881F981E00F20
:10051000F11F6280712CCE010E9422020E94B80855
:10052000C880D98068167906D9F0C00ED11EF601B0
:10053000A38284819581A681B78180879187A287D4
:10054000B3870E948707F601648375838683978348
:10055000E881F981E00FF11F82818A25828304C03E
:10056000F601E00FF11F13829394C1CF10E0212F09
:1005700030E0898590E00197281739074CF4612F06
:10058000CE010E94220261E00E9449081F5FEFCF66
:100590008E818F5F8E83FFEFEF1AFF0AB92C76CF23
:1005A000DF91CF911F910F91FF90EF90DF90CF904F
:1005B000BF90AF909F907F906F900895BF92CF9221
:1005C000DF92EF92FF920F931F93CF93DF93EC0193
:1005D00089859FEF980F989F802D11248A832CE0A6
:1005E000829FC00111240E947E0999838883B12CC7
:1005F0008A81B816E0F4088119818CE0B89E000D5C
:10060000111D11240E9487076B017C010E9487073E
:10061000F801B082118212821382C482D582E682EE
:10062000F7826087718782879387B394E1CFCE0189
:10063000DF91CF911F910F91FF90EF90DF90CF90BE
:10064000BF900C943202EF92FF920F931F93CF93BF
:10065000DF93EC018A8186958D839A85981708F43B
:100660009D838D8128E0829FC00111240E947E0914
:100670009C838B830881198180E09D818917A0F478
:10068000EB81FC8138E0839FE00DF11D11249A85F8
:100690009C5E981B80839183128213821582148240
:1006A000178216828F5FE9CFF12CEE24E3948D81BF
:1006B000F816D0F5CE010E94320220E08A81281778
:1006C000B0F73CE0239FC0011124E881F981E80FD5
:1006D000F91F3381332331F142813181411111C03E
:1006E000311120C0D801A80FB91FEB81FC8188E02F
:1006F000F89EE00DF11D1124B783A6831196EC92AC
:1007000011C031110FC0D801A80FB91FEB81FC81B6
:1007100098E0F99EE00DF11D1124B583A483119694
:10072000EC92F3942F5FCACFDF91CF911F910F917D
:10073000FF90EF900895CF93DF93EC0126E040E81F
:1007400055E260E070E08AE292E00E94BF058AE232
:1007500092E00E943805CE010E94DE02CE01DF91B8
:10076000CF910C9423031F93CF93DF931F92CDB7A8
:10077000DEB7162F61E970E08AE292E049830E94B9
:100780007F01612F8AE292E00E945A054981642F1D
:100790008AE292E00F90DF91CF911F910C945A055D
:1007A0001F93CF93DF931F92CDB7DEB7162F61E86B
:1007B00070E08AE292E049830E947F01612F8AE221
:1007C00092E00E945A054981642F8AE292E00F90DC
:1007D000DF91CF911F910C945A05CF92DF92EF9247
:1007E000FF920F931F93CF93DF93EC01D12CCC2476
:1007F000C3948D81D81608F084C008E0D09E7001A3
:100800001124EB81FC81EE0DFF1D24813581D9017E
:1008100013968C911397882391F112968C918823CB
:1008200071F146815781DA0112968C91811127C0AE
:100830006281F90184819581A681B781662329F0BF
:10084000408551856285738505C0FA0144815581D3
:10085000668177818C019D01041B150B260B370BDC
:10086000B901A801CE010E948D01EB81FC81EE0D42
:10087000FF1DC282482F6181CE010E94B303EB812C
:10088000FC81EE0DFF1D66817781DB0113968C9153
:100890008823A9F184819581DC0112962C91211184
:1008A0002EC0DB0112962C911297222341F1428136
:1008B00014960D911D912D913C911797411107C0F0
:1008C00018968D919D910D90BC91A02D05C0FC01B5
:1008D00084819581A681B781B901A801481B590B74
:1008E0006A0B7B0BCE010E948D01EB81FC81EE0D2A
:1008F000FF1D1282482F6181CE010E94D003D39444
:1009000078CFDF91CF911F910F91FF90EF90DF9003
:10091000CF90089508958EE192E00C949B038EE1B0
:1009200092E00E9432028EE192E00C94ED030E946C
:1009300093070E948A040E948B04CAEDD4E00E94AF
:100940008F042097E1F30E94DA04F9CF43E06AE0D4
:1009500072E08EE192E00C948601FC01818D228D83
:1009600090E0805C9F4F821B91098F7399270895B7
:10097000FC01918D828D981731F0828DE80FF11D69
:10098000858D90E008958FEF9FEF0895FC01918D84
:10099000828D981761F0828DDF01A80FB11D5D96E1
:1009A0008C91928D9F5F9F73928F90E008958FEF4F
:1009B0009FEF089581E896E0892B41F080E090E078
:1009C000892B21F00E948106811125C080E090E0F2
:1009D000892B41F080E090E0892B21F00E940000FB
:1009E00081111CC080E090E0892B41F080E090E014
:1009F000892B21F00E940000811113C080E090E05B
:100A0000892BA1F080E090E0892B81F00E9400000A
:100A100081110AC008950E940000D8CF0E940000F2
:100A2000E1CF0E940000EACF0C9400000895FC0181
:100A3000848DDF01A80FB11DA35ABF4F2C91848D67
:100A400090E001968F739927848FA689B7892C939C
:100A5000A089B1898C9180648C93938D848D981337
:100A600006C00288F389E02D80818F7D8083089500
:100A7000CF93DF93EC01888D8823C9F0EA89FB8945
:100A8000808185FD05C0A889B9898C9186FD0FC03C
:100A90000FB607FCF5CF808185FFF2CFA889B98911
:100AA0008C9185FFEDCFCE010E941705E7CFDF9136
:100AB000CF910895CF92DF92FF920F931F93CF9320
:100AC000DF931F92CDB7DEB76C0181E0D601589657
:100AD0008C9358975B969C915B975C968C915C97F6
:100AE000981307C05096ED91FC915197808185FD38
:100AF0002EC0F601038D10E00F5F1F4F0F731127FB
:100B0000F02EF601848DF81211C00FB607FCF9CF54
:100B1000D6015096ED91FC915197808185FFF1CFE0
:100B2000C60169830E9417056981EBCF838DE80FA9
:100B3000F11DE35AFF4F6083D6015B960C935B97E0
:100B40005296ED91FC915397808180620CC0D60142
:100B50005696ED91FC91579760835096ED91FC91DC
:100B6000519780818064808381E090E00F90DF91D5
:100B7000CF911F910F91FF90DF90CF900895BF927A
:100B8000CF92DF92EF92FF92CF93DF93EC016A0155
:100B90007B01B22EE889F98982E08083411581EEDC
:100BA000580761057105A1F060E079E08DE390E000
:100BB000A70196010E9405092150310941095109F7
:100BC0005695479537952795211580E1380798F078
:100BD000E889F989108260E874E88EE190E0A70165
:100BE00096010E9405092150310941095109569584
:100BF000479537952795EC85FD853083EE85FF85F4
:100C00002083188EEC89FD89B082EA89FB89808176
:100C100080618083EA89FB89808188608083EA899A
:100C2000FB89808180688083EA89FB8980818F7D50
:100C30008083DF91CF91FF90EF90DF90CF90BF90B6
:100C400008951F920F920FB60F9211240BB60F92B8
:100C50002F938F939F93EF93FF93E0913A02F0913C
:100C60003B028081E0914002F091410282FD12C07E
:100C70009081809143028F5F8F732091440282178D
:100C800051F0E0914302F0E0E65DFD4F958F8093D7
:100C9000430201C08081FF91EF919F918F912F912D
:100CA0000F900BBE0F900FBE0F901F9018951F92C4
:100CB0000F920FB60F9211240BB60F922F933F9302
:100CC0004F935F936F937F938F939F93AF93BF9354
:100CD000EF93FF938AE292E00E941705FF91EF9154
:100CE000BF91AF919F918F917F916F915F914F9144
:100CF0003F912F910F900BBE0F900FBE0F901F9042
:100D000018958AE292E00E94AD0421E0892B09F453
:100D100020E0822F089510922D0210922C0288EE6E
:100D200093E0A0E0B0E080932E0290932F02A09376
:100D30003002B093310281E192E090932B028093D4
:100D40002A0285EC90E0909337028093360284EC7F
:100D500090E0909339028093380280EC90E0909379
:100D60003B0280933A0281EC90E090933D028093A5
:100D70003C0282EC90E090933F0280933E0286EC2E
:100D800090E09093410280934002109243021092AF
:100D9000440210924502109246020895CF92DF92CB
:100DA000EF92FF920F931F93CF93DF937C016A0121
:100DB000EB0100E010E00C151D0571F06991D70101
:100DC000ED91FC910190F081E02DC7011995892BDF
:100DD00019F00F5F1F4FEFCFC801DF91CF911F9127
:100DE0000F91FF90EF90DF90CF9008954F925F9218
:100DF0006F927F92AF92BF92CF92DF92EF92FF926B
:100E00000F931F93CF93DF93CDB7DEB729013A013C
:100E1000621B730B840B950B2A893B894C895D8976
:100E20002A193B094C095D092A8B3B8B4C8B5D8B46
:100E30009B01AC016A897B898C899D890E94E108AC
:100E4000E418F50806091709A80197010E94270967
:100E50002A0D3B1D4C1D5D1DCA01B901DF91CF91CB
:100E60001F910F91FF90EF90DF90CF90BF90AF90C8
:100E70007F906F905F904F9008951F920F920FB6E2
:100E80000F9211242F933F938F939F93AF93BF9310
:100E90008091C8029091C902A091CA02B091CB0280
:100EA0003091C70223E0230F2D3720F40196A11DB6
:100EB000B11D05C026E8230F0296A11DB11D209388
:100EC000C7028093C8029093C902A093CA02B0934C
:100ED000CB028091CC029091CD02A091CE02B09134
:100EE000CF020196A11DB11D8093CC029093CD023B
:100EF000A093CE02B093CF02BF91AF919F918F91FB
:100F00003F912F910F900FBE0F901F9018952FB704
:100F1000F8946091C8027091C9028091CA029091C0
:100F2000CB022FBF0895789484B5826084BD84B5C8
:100F3000816084BD85B5826085BD85B5816085BDD4
:100F4000EEE6F0E0808181608083E1E8F0E01082ED
:100F5000808182608083808181608083E0E8F0E02E
:100F6000808181608083E1EBF0E080818460808318
:100F7000E0EBF0E0808181608083E1E9F0E0808156
:100F800082608083808181608083E0E9F0E08081FD
:100F900081608083E1EAF0E08081826080838081EB
:100FA00081608083E0EAF0E0808181608083E1E21B
:100FB000F1E0808182608083808181608083E0E2D3
:100FC000F1E0808181608083EAE7F0E080818460E5
:100FD0008083808182608083808181608083808142
:100FE000806880831092C100089590E0FC013197E1
:100FF000E231F10508F04CC0EE58FF4F0C94460961
:10100000809180008F7703C0809180008F7D8093D6
:101010008000089580918000877FF9CF84B58F7715
:1010200002C084B58F7D84BD08958091B0008F7714
:1010300003C08091B0008F7D8093B00008958091AF
:1010400090008F7707C0809190008F7D03C08091C2
:101050009000877F8093900008958091A0008F7703
:1010600007C08091A0008F7D03C08091A000877F82
:101070008093A0000895809120018F7707C0809110
:1010800020018F7D03C080912001877F8093200104
:101090000895CF93DF9390E0FC01E654FE4F249136
:1010A000FC01E050FE4F8491882349F190E0880FC5
:1010B000991FFC01E658FD4FA591B491805A9D4FB0
:1010C000FC01C591D4919FB7611108C0F8948C912F
:1010D000209582238C93888182230AC0623051F448
:1010E000F8948C91322F309583238C938881822BB6
:1010F000888304C0F8948C91822B8C939FBFDF91DE
:10110000CF9108950F931F93CF93DF931F92CDB785
:10111000DEB7282F30E0F901EC58FE4F8491F90139
:10112000E654FE4F1491F901E050FE4F0491002364
:10113000C9F0882321F069830E94F5076981E02FB7
:10114000F0E0EE0FFF1FE05AFD4FA591B4919FB75D
:10115000F8948C91611103C01095812301C0812BFB
:101160008C939FBF0F90DF91CF911F910F910895A6
:10117000CF93DF93282F30E0F901EC58FE4F849194
:10118000F901E654FE4FD491F901E050FE4FC491AD
:10119000CC2391F081110E94F507EC2FF0E0EE0FC7
:1011A000FF1FEA5BFD4FA591B4912C912D2381E0A7
:1011B00090E021F480E002C080E090E0DF91CF91E8
:1011C0000895DB018F939F930E944C09BF91AF91CB
:1011D000A29F800D911DA39F900DB29F900D112491
:1011E000089597FB072E16F4009407D077FD09D0D9
:1011F0000E945B0907FC05D03EF4909581959F4FB6
:101200000895709561957F4F0895A1E21A2EAA1B4B
:10121000BB1BFD010DC0AA1FBB1FEE1FFF1FA217A6
:10122000B307E407F50720F0A21BB30BE40BF50BA3
:10123000661F771F881F991F1A9469F7609570952C
:10124000809590959B01AC01BD01CF010895052EBD
:1012500097FB1EF400940E943E0957FD07D00E94A0
:10126000050907FC03D04EF40C943E0950954095B7
:10127000309521953F4F4F4F5F4F08959095809542
:10128000709561957F4F8F4F9F4F0895EE0FFF1F11
:101290000590F491E02D19940E946F09A59F900D7F
:1012A000B49F900DA49F800D911D11240895079067
:1012B000F691E02D1994AA1BBB1B51E107C0AA1F90
:1012C000BB1FA617B70710F0A61BB70B881F991FE7
:1012D0005A95A9F780959095BC01CD010895A29FDC
:1012E000B001B39FC001A39F700D811D1124911DFA
:1012F000B29F700D811D1124911D0895CF93DF932E
:101300008230910510F482E090E0E091D202F091F9
:10131000D30220E030E0A0E0B0E0309739F1408126
:10132000518148175907B8F04817590771F482815D
:101330009381109729F013969C938E9312972CC04B
:101340009093D3028093D20227C02115310531F04A
:101350004217530718F0A901DB0101C0EF019A0100
:10136000BD01DF010280F381E02DD7CF21153105CA
:10137000F9F0281B390B2430310580F48A819B81D8
:101380006115710521F0FB019383828304C0909362
:10139000D3028093D202FE01329644C0FE01E20FD6
:1013A000F31F8193919322503109398328833AC0E6
:1013B0002091D0023091D102232B41F420910202DE
:1013C000309103023093D1022093D0022091000289
:1013D000309101022115310541F42DB73EB74091FE
:1013E000040250910502241B350BE091D002F091CC
:1013F000D102E217F307A0F42E1B3F0B2817390781
:1014000078F0AC014E5F5F4F2417350748F04E0F60
:101410005F1F5093D1024093D0028193919302C0F9
:10142000E0E0F0E0CF01DF91CF910895CF93DF931B
:10143000009709F487C0FC01329713821282C09191
:10144000D202D091D302209781F420813181280FDC
:10145000391F8091D0029091D1028217930779F5BC
:10146000F093D102E093D0026DC0DE0120E030E0C5
:10147000AE17BF0750F412964D915C9113979D01E2
:101480004115510509F1DA01F3CFB383A2834081FD
:101490005181840F951F8A179B0771F48D919C9140
:1014A0001197840F951F02969183808312968D91D8
:1014B0009C911397938382832115310529F4F0932E
:1014C000D302E093D2023EC0D9011396FC93EE936F
:1014D00012974D915D91A40FB51FEA17FB0779F4A0
:1014E00080819181840F951F0296D90111969C935A
:1014F0008E938281938113969C938E931297E0E052
:10150000F0E08A819B81009719F0FE01EC01F9CF90
:10151000CE01029628813981820F931F2091D0023B
:101520003091D1022817390769F4309729F41092C5
:10153000D3021092D20202C013821282D093D1023F
:0E154000C093D002DF91CF910895F894FFCFB1
:10154E000000D4028000010000000203040000002D
:0E155E00005A05CE06AD04C604B804380500D8
:00000001FF
