:100000000C944C010C947D010C947D010C947D01A9
:100010000C947D010C947D010C947D010C947D0168
:100020000C947D010C947D010C947D010C947D0158
:100030000C947D010C947D010C947D010C947D0148
:100040000C947D010C947D010C947D010C947D0138
:100050000C947D010C947D010C947D010C9473092A
:100060000C947D010C949C060C94D2060C947D019A
:100070000C947D010C947D010C947D010C947D0108
:100080000C947D010C947D010C947D010C947D01F8
:100090000C947D010C947D010C947D010C947D01E8
:1000A0000C947D010C947D010C947D010C947D01D8
:1000B0000C947D010C947D010C947D010C947D01C8
:1000C0000C947D010C947D010C947D010C947D01B8
:1000D0000C947D010C947D010C947D010C947D01A8
:1000E0000C947D01440A470A360A3A0A400A7E0AFD
:1000F0004B0A4F0A550A590A5D0A630A670A6B0AD6
:100100007E0A710A750A790A0C94750A0C943A0AE7
:100110000C944F0A0C94400A0C945D0A0C94790AD2
:100120000C9421050C94550A0C94FC060C94B30510
:100130000C94D5050C94590A0C9428050C944B0A80
:100140000C94670A0C9406070C947E0A0C946B0AB4
:100150000C9441050C9449070C94470A0C94710ABD
:100160000C9433050C94630A0C9455050C94360AD0
:100170000C94440A00000A0B02090C0D0E08070338
:10018000040100000000000000000000000000006A
:10019000000000000000000000000000000000005F
:1001A000121110000000000000000000000000001C
:1001B00000000000000000000000010210202008E4
:1001C00008102040102040800201020108040201B2
:1001D0000102040810204080804020100804020121
:1001E000800402018040201008040201080402017A
:1001F0000102040810204080010204081020408001
:1002000005050505070508080808020202020A0A92
:1002100008080404040401010101010101010303B0
:10022000030303030303040707070C0C0C0C0C0C5B
:100230000C0C0202020206060606060606060B0B58
:100240000B0B0B0B0B0B00002000230026002900DA
:100250002C002F00320000010000030106010901FB
:1002600000002200250028002B002E003100340061
:1002700002010000050108010B010000210024001B
:1002800027002A002D003000330001010000040186
:1002900007010A012105060711241FBECFEFD1E295
:1002A000DEBFCDBF00E00CBF12E0A0E0B2E0E8EF9F
:1002B000FDE100E00BBF02C007900D92A234B10730
:1002C000D9F723E0A2E4B2E001C01D92A730B20743
:1002D000E1F712E0C8E9D2E000E006C02297010988
:1002E000FE010BBF0E948D0BC439D10780E00807C7
:1002F000A9F70E9412050C94FA0E0C940000DC0180
:10030000ED91FC910190F081E02D1994FC0188E5BC
:1003100082874187708767830895CF93DF93EC01CD
:100320008A8186958D839A85981708F49D838D819F
:1003300028E0829FC00111240E94D30D9C838B83EF
:1003400080E09D818917A0F4EB81FC8198E0899F72
:10035000E00DF11D11249A859C5E981B808391838A
:100360001282138215821482178216828F5FE9CF60
:10037000DF91CF9108954F925F926F927F92AF92EB
:10038000BF92CF92DF92EF92FF920F931F93CF9382
:100390002A013B011F921F921F92CFE7CF936AE081
:1003A000A62EB12CC12CD12C14E8E12E13E0F12E95
:1003B00000E010E020E030E0A901C301B2010E949A
:1003C0002C090F900F900F900F9097FF1FC01F9256
:1003D0001F921F92CFE7CF934AE0A42EB12CC12CDD
:1003E000D12C14E8E12E13E0F12E00E010E020E023
:1003F00030E0A901C301B2010E942C090F900F90B7
:100400000F900F9097FF23C080E03CC01F921F9277
:100410001F92CF932AE0A22EB12CC12CD12C14E82C
:10042000E12E13E0F12E00E010E020E030E0A90121
:10043000C301B2010E942C090F900F900F900F90F2
:10044000603871058105910514F28FE71BC01F927A
:100450001F921F92CF938AE0A82EB12CC12CD12CD1
:1004600014E8E12E13E0F12E00E010E020E030E08F
:10047000A901C301B2010E942C090F900F900F90A7
:100480000F90862FCF911F910F91FF90EF90DF90EB
:10049000CF90BF90AF907F906F905F904F900895F6
:1004A000FC01868190E0860F911D618570E00E94BD
:1004B000270B0780F085E02DE80FF91F8081089554
:1004C0006F927F929F92AF92BF92CF92DF92EF9204
:1004D000FF920F931F93CF93DF93EC011E82E12CC9
:1004E000F12CB12CAA24A394898590E0E816F90692
:1004F0000CF084C010E0212F30E0898590E0019756
:10050000612F2817390744F4CE010E94500260E0A1
:100510000E94B80A1F5FEFCFCE010E94500261E037
:100520000E94B80A10E0212F30E0898590E0019701
:10053000281739074CF4612FCE010E94500260E069
:100540000E947F0A1F5FEFCF9B2C692D6B19262F0E
:1005500030E0898590E0019728173907ACF58CE0E9
:10056000989E80011124E881F981E00FF11F6280DB
:10057000712CCE010E9450020E94EE0AC880D980E0
:1005800068167906D9F0C00ED11EF601A3828481C7
:100590009581A681B78180879187A287B3870E94C2
:1005A000BD09F6016483758386839783E881F981A9
:1005B000E00FF11F82818A25828304C0F601E00FDB
:1005C000F11F13829394C1CF10E0212F30E0898571
:1005D00090E00197281739074CF4612FCE010E9453
:1005E000500261E00E947F0A1F5FEFCF8E818F5F14
:1005F0008E83FFEFEF1AFF0AB92C76CFDF91CF91F0
:100600001F910F91FF90EF90DF90CF90BF90AF9030
:100610009F907F906F900895BF92CF92DF92EF925C
:10062000FF920F931F93CF93DF93EC0189859FEF88
:10063000980F989F802D11248A832CE0829FC001FF
:1006400011240E94D30D99838883B12C8A81B81616
:10065000E0F4088119818CE0B89E000D111D112471
:100660000E94BD096B017C010E94BD09F801B082A6
:10067000118212821382C482D582E682F782608759
:10068000718782879387B394E1CFCE01DF91CF91B9
:100690001F910F91FF90EF90DF90CF90BF900C943F
:1006A0006002EF92FF920F931F93CF93DF93EC01C1
:1006B00008811981F12CEE24E3948D81F816D0F590
:1006C000CE010E94600220E08A812817B0F73CE04A
:1006D000239FC0011124E881F981E80FF91F3381BC
:1006E000332331F142813181411111C0311120C0D8
:1006F000D801A80FB91FEB81FC8188E0F89EE00DBE
:10070000F11D1124B783A6831196EC9211C031110B
:100710000FC0D801A80FB91FEB81FC8138E0F39E10
:10072000E00DF11D1124B583A4831196EC92F3948E
:100730002F5FCACFDF91CF911F910F91FF90EF9064
:100740000895CF93DF93EC0126E040E855E260E0A6
:1007500070E08DE592E00E943A068DE592E00E94FD
:10076000B305CE010E940C03CE010E948D01CE0183
:10077000DF91CF910C9451031F93CF93DF931F927E
:10078000CDB7DEB7162F61E970E08DE592E04983C1
:100790000E947F01612F8DE592E00E94D50549817D
:1007A000642F8DE592E00F90DF91CF911F910C9413
:1007B000D5051F93CF93DF931F92CDB7DEB7162FCA
:1007C00061E870E08DE592E049830E947F01612F2E
:1007D0008DE592E00E94D5054981642F8DE592E078
:1007E0000F90DF91CF911F910C94D505CF92DF929E
:1007F000EF92FF920F931F93CF93DF93EC01D12CD5
:10080000CC24C3948D81D81608F084C008E0D09E13
:1008100070011124EB81FC81EE0DFF1D24813581D7
:10082000D90113968C911397882391F112968C918C
:10083000882371F146815781DA0112968C918111DA
:1008400027C06281F90184819581A681B7816623E1
:1008500029F0408551856285738505C0FA01448180
:100860005581668177818C019D01041B150B260B38
:10087000370BB901A801CE010E94BB01EB81FC81BD
:10088000EE0DFF1DC282482F6181CE010E94BC0384
:10089000EB81FC81EE0DFF1D66817781DB011396F4
:1008A0008C918823A9F184819581DC0112962C9189
:1008B00021112EC0DB0112962C911297222341F1B7
:1008C000428114960D911D912D913C9117974111E4
:1008D00007C018968D919D910D90BC91A02D05C0DB
:1008E000FC0184819581A681B781B901A801481BCB
:1008F000590B6A0B7B0BCE010E94BB01EB81FC8183
:10090000EE0DFF1D1282482F6181CE010E94D90396
:10091000D39478CFDF91CF911F910F91FF90EF90FB
:10092000DF90CF900895089582E492E00C94A103A3
:100930000F931F930E94BD0960935102709352025E
:10094000809353029093540282E492E00E946002EA
:1009500082E492E00E94F6030E94BD096093550272
:1009600070935602809357029093580260934D0201
:1009700070934E0280934F0290935002009159025F
:1009800010915A0220915B0230915C02DC01CB0194
:10099000801B910BA20BB30B893E9340A105B105BF
:1009A000F0F10E94BD096093590270935A0280933E
:1009B0005B0290935C026AE072E08DE592E00E9437
:1009C000870760914D0270914E0280914F02909185
:1009D0005002009151021091520220915302309125
:1009E0005402601B710B820B930B0E94B60C9B018F
:1009F000AC0160E070E08AE794E40E941D0CAB015A
:100A0000BC0122E030E08DE592E00E942A096AE113
:100A100072E08DE592E01F910F910C9494071F9165
:100A20000F9108950E94C9090E9493040E949404A2
:100A3000C5E5D5E00E9498042097E1F30E94550592
:100A4000F9CF43E06EE172E082E492E00C9486011B
:100A5000FC01818D228D90E0805C9F4F821B91096B
:100A60008F7399270895FC01918D828D981731F02D
:100A7000828DE80FF11D858D90E008958FEF9FEF37
:100A80000895FC01918D828D981761F0828DDF01B0
:100A9000A80FB11D5D968C91928D9F5F9F73928F71
:100AA00090E008958FEF9FEF08958CEF96E0892BEB
:100AB00041F080E090E0892B21F00E94FC0681113A
:100AC00025C080E090E0892B41F080E090E0892B08
:100AD00021F00E94000081111CC080E090E0892B71
:100AE00041F080E090E0892B21F00E94000081110C
:100AF00013C080E090E0892BA1F080E090E0892B8A
:100B000081F00E94000081110AC008950E94000037
:100B1000D8CF0E940000E1CF0E940000EACF0C94E1
:100B200000000895FC01848DDF01A80FB11DA35AB8
:100B3000BF4F2C91848D90E001968F739927848FFD
:100B4000A689B7892C93A089B1898C9180648C93F4
:100B5000938D848D981306C00288F389E02D8081DF
:100B60008F7D80830895CF93DF93EC01888D882358
:100B7000C9F0EA89FB89808185FD05C0A889B9890A
:100B80008C9186FD0FC00FB607FCF5CF808185FFE5
:100B9000F2CFA889B9898C9185FFEDCFCE010E9453
:100BA0009205E7CFDF91CF910895CF92DF92FF9228
:100BB0000F931F93CF93DF931F92CDB7DEB76C01D6
:100BC00081E0D60158968C9358975B969C915B97E1
:100BD0005C968C915C97981307C05096ED91FC91B0
:100BE0005197808185FD2EC0F601038D10E00F5FC7
:100BF0001F4F0F731127F02EF601848DF81211C0CC
:100C00000FB607FCF9CFD6015096ED91FC915197A4
:100C1000808185FFF1CFC60169830E9492056981B9
:100C2000EBCF838DE80FF11DE35AFF4F6083D601B0
:100C30005B960C935B975296ED91FC915397808154
:100C400080620CC0D6015696ED91FC915797608357
:100C50005096ED91FC91519780818064808381E072
:100C600090E00F90DF91CF911F910F91FF90DF9057
:100C7000CF900895BF92CF92DF92EF92FF92CF93E1
:100C8000DF93EC016A017B01B22EE889F98982E0E9
:100C90008083411581EE580761057105A1F060E080
:100CA00079E08DE390E0A70196010E943B0B215073
:100CB00031094109510956954795379527952115D1
:100CC00080E1380798F0E889F989108260E874E8D3
:100CD0008EE190E0A70196010E943B0B2150310963
:100CE000410951095695479537952795EC85FD851E
:100CF0003083EE85FF852083188EEC89FD89B082D4
:100D0000EA89FB89808180618083EA89FB8980810F
:100D100088608083EA89FB89808180688083EA8992
:100D2000FB8980818F7D8083DF91CF91FF90EF9051
:100D3000DF90CF90BF9008951F920F920FB60F9241
:100D400011240BB60F922F938F939F93EF93FF93E2
:100D5000E0916D02F0916E028081E0917302F0915A
:100D6000740282FD12C09081809176028F5F8F7332
:100D700020917702821751F0E0917602F0E0E35A79
:100D8000FD4F958F8093760201C08081FF91EF9196
:100D90009F918F912F910F900BBE0F900FBE0F90D0
:100DA0001F9018951F920F920FB60F9211240BB639
:100DB0000F922F933F934F935F936F937F938F93F4
:100DC0009F93AF93BF93EF93FF938DE592E00E94C3
:100DD0009205FF91EF91BF91AF919F918F917F917C
:100DE0006F915F914F913F912F910F900BBE0F909C
:100DF0000FBE0F901F9018958DE592E00E94280578
:100E000021E0892B09F420E0822F089510926002DE
:100E100010925F0288EE93E0A0E0B0E08093610260
:100E200090936202A0936302B093640285E292E021
:100E300090935E0280935D0285EC90E090936A024D
:100E40008093690284EC90E090936C0280936B0233
:100E500080EC90E090936E0280936D0281EC90E0C4
:100E60009093700280936F0282EC90E090937202F4
:100E70008093710286EC90E09093740280937302E9
:100E800010927602109277021092780210927902F4
:100E90000895CF92DF92EF92FF920F931F93CF931B
:100EA000DF937C016A01EB0100E010E00C151D05E9
:100EB00071F06991D701ED91FC910190F081E02DE5
:100EC000C7011995892B19F00F5F1F4FEFCFC8018C
:100ED000DF91CF911F910F91FF90EF90DF90CF9016
:100EE00008956115710581F0DB010D900020E9F78F
:100EF000AD0141505109461B570BDC01ED91FC91AE
:100F00000280F381E02D199480E090E008950C9424
:100F10007107DC01ED91FC910190F081E02D1994B5
:100F200061E372E00C9471070F931F93CF93DF93EB
:100F3000EC010E9471078C01CE010E949007800F86
:100F4000911FDF91CF911F910F9108958F929F92E2
:100F5000AF92BF92DF92EF92FF920F931F93CF93C6
:100F6000DF93CDB7DEB7A1970FB6F894DEBF0FBE03
:100F7000CDBF7C01F42FD52ECB0119A2223008F46D
:100F80002AE08E010F5D1F4F822E912CA12CB12CD7
:100F90006F2F7D2DA50194010E943B0BF22FD32EC4
:100FA000CA01015011096A3014F4E0E301C0E7E31B
:100FB000E60FD801EC93232B242B252B49F7B801FE
:100FC000C7010E947107A1960FB6F894DEBF0FBE4D
:100FD000CDBFDF91CF911F910F91FF90EF90DF90E8
:100FE000BF90AF909F908F900895CF92DF92EF9235
:100FF000FF920F931F93CF93DF93EC016A017B0164
:101000002115310579F4E881F9810190F081E02D15
:10101000642FDF91CF911F910F91FF90EF90DF90A0
:10102000CF9019942A303105E9F477FF1AC06DE2A8
:101030000E9489078C0144275527BA014C195D0984
:101040006E097F092AE0CE010E94A607800F911F3A
:10105000DF91CF911F910F91FF90EF90DF90CF9094
:1010600008952AE0B701A601CE01DF91CF911F912B
:101070000F91FF90EF90DF90CF900C94A6074F92C6
:101080005F926F927F928F929F92AF92BF92CF9218
:10109000DF92EF92FF920F931F93CF93DF93EC01B8
:1010A0006A017B01B22E9A01AB01C701B6010E9411
:1010B000CF0D882319F064E372E027C026013701C1
:1010C000E89477F82FEF3FEF4FE75FE7C301B201F6
:1010D0000E94CF0D81110DC02FEF3FEF4FE75FE76B
:1010E000C301B2010E94190C18161CF468E372E0E7
:1010F0000CC02FEF3FEF4FE75FE4C701B6010E943E
:10110000680D1816ACF46CE372E0CE01DF91CF915C
:101110001F910F91FF90EF90DF90CF90BF90AF9015
:101120009F908F907F906F905F904F900C9471077D
:101130002FEF3FEF4FE75FECC701B6010E94190C9C
:1011400087FDE1CF20E030E0A901C701B6010E9490
:10115000190C87FF0AC06DE2CE010E9489078C013D
:10116000F7FAF094F7F8F09402C000E010E0A12C38
:1011700060E070E080E09FE3AB1441F020E030E0FD
:1011800040E251E40E941D0CA394F6CF9B01AC01F8
:10119000C701B6010E94B50B6B017C010E948A0C4D
:1011A0002B013C010E94B60C9B01AC01C701B601AA
:1011B0000E94B40B6B017C012AE0B301A201CE01B5
:1011C0000E94A607080F191FBB2039F060E472E0E7
:1011D000CE010E947107080F191F7B2C772041F167
:1011E00020E030E040E251E4C701B6010E946C0DFE
:1011F0006B017C010E94850C4B01AA2497FCA094F2
:10120000BA2C2AE030E0B501A401CE010E94F50716
:10121000080F191FC501B4010E94B80C9B01AC0155
:10122000C701B6010E94B40B6B017C017A94D6CF42
:10123000C801DF91CF911F910F91FF90EF90DF9048
:10124000CF90BF90AF909F908F907F906F905F9066
:101250004F9008950C943F084F925F926F927F9247
:10126000AF92BF92CF92DF92EF92FF920F931F93B4
:10127000CF93DF93CDB7DEB729013A01621B730B21
:10128000840B950B2A893B894C895D892A193B0976
:101290004C095D092A8B3B8B4C8B5D8B9B01AC0110
:1012A0006A897B898C899D890E94170BE418F5084F
:1012B00006091709A80197010E945D0B2A0D3B1D25
:1012C0004C1D5D1DCA01B901DF91CF911F910F9196
:1012D000FF90EF90DF90CF90BF90AF907F906F9096
:1012E0005F904F9008951F920F920FB60F921124A6
:1012F0002F933F938F939F93AF93BF938091FB0264
:101300009091FC02A091FD02B091FE023091FA0290
:1013100023E0230F2D3720F40196A11DB11D05C038
:1013200026E8230F0296A11DB11D2093FA02809397
:10133000FB029093FC02A093FD02B093FE02809109
:10134000FF0290910003A0910103B0910203019666
:10135000A11DB11D8093FF0290930003A093010390
:10136000B0930203BF91AF919F918F913F912F91C5
:101370000F900FBE0F901F9018952FB7F8946091A3
:10138000FB027091FC028091FD029091FE022FBF42
:101390000895789484B5826084BD84B5816084BDED
:1013A00085B5826085BD85B5816085BDEEE6F0E0DE
:1013B000808181608083E1E8F0E01082808182603A
:1013C0008083808181608083E0E8F0E080818160BB
:1013D0008083E1EBF0E0808184608083E0EBF0E0EB
:1013E000808181608083E1E9F0E080818260808398
:1013F000808181608083E0E9F0E08081816080838A
:10140000E1EAF0E080818260808380818160808376
:10141000E0EAF0E0808181608083E1E2F1E08081B8
:1014200082608083808181608083E0E2F1E080815E
:1014300081608083EAE7F0E080818460808380813E
:1014400082608083808181608083808180688083E6
:101450001092C100089590E0FC013197E231F1054E
:1014600008F04CC0EE58FF4F0C947C0B809180002C
:101470008F7703C0809180008F7D809380000895D6
:1014800080918000877FF9CF84B58F7702C084B5C3
:101490008F7D84BD08958091B0008F7703C08091C7
:1014A000B0008F7D8093B0000895809190008F7779
:1014B00007C0809190008F7D03C080919000877F4E
:1014C0008093900008958091A0008F7707C080914D
:1014D000A0008F7D03C08091A000877F8093A00033
:1014E0000895809120018F7707C0809120018F7D22
:1014F00003C080912001877F809320010895CF93BE
:10150000DF9390E0FC01E654FE4F2491FC01E05093
:10151000FE4F8491882349F190E0880F991FFC01C8
:10152000E658FD4FA591B491805A9D4FFC01C5919D
:10153000D4919FB7611108C0F8948C9120958223B3
:101540008C93888182230AC0623051F4F8948C9184
:10155000322F309583238C938881822B888304C01B
:10156000F8948C91822B8C939FBFDF91CF9108953B
:101570000F931F93CF93DF931F92CDB7DEB7282F22
:1015800030E0F901EC58FE4F8491F901E654FE4F2A
:101590001491F901E050FE4F04910023C9F0882313
:1015A00021F069830E942B0A6981E02FF0E0EE0FA1
:1015B000FF1FE05AFD4FA591B4919FB7F8948C910D
:1015C000611103C01095812301C0812B8C939FBFB3
:1015D0000F90DF91CF911F910F910895CF93DF93DB
:1015E000282F30E0F901EC58FE4F8491F901E654C0
:1015F000FE4FD491F901E050FE4FC491CC2391F0FD
:1016000081110E942B0AEC2FF0E0EE0FFF1FEA5B26
:10161000FD4FA591B4912C912D2381E090E021F410
:1016200080E002C080E090E0DF91CF910895DB017F
:101630008F939F930E94820BBF91AF91A29F800DC9
:10164000911DA39F900DB29F900D1124089597FBBB
:10165000072E16F4009407D077FD09D00E94910B55
:1016600007FC05D03EF4909581959F4F08957095A5
:1016700061957F4F0895A1E21A2EAA1BBB1BFD01A5
:101680000DC0AA1FBB1FEE1FFF1FA217B307E40761
:10169000F50720F0A21BB30BE40BF50B661F771FB9
:1016A000881F991F1A9469F7609570958095909599
:1016B0009B01AC01BD01CF010895052E97FB1EF4DF
:1016C00000940E94740B57FD07D00E943B0B07FC4F
:1016D00003D04EF40C94740B5095409530952195A1
:1016E0003F4F4F4F5F4F089590958095709561954E
:1016F0007F4F8F4F9F4F0895EE0FFF1F0590F4917E
:10170000E02D19940E94A50BA59F900DB49F900DFC
:10171000A49F800D911D112408950790F691E02D4E
:101720001994AA1BBB1B51E107C0AA1FBB1FA61718
:10173000B70710F0A61BB70B881F991F5A95A9F77A
:1017400080959095BC01CD010895A29FB001B39FF3
:10175000C001A39F700D811D1124911DB29F700DBA
:10176000811D1124911D08955058BB27AA270ED022
:1017700075C166D130F06BD120F031F49F3F11F488
:101780001EF45BC10EF4E095E7FB51C1E92F77D160
:1017900080F3BA17620773078407950718F071F48E
:1017A0009EF58FC10EF4E0950B2EBA2FA02D0B01E4
:1017B000B90190010C01CA01A0011124FF27591B96
:1017C00099F0593F50F4503E68F11A16F040A22F9C
:1017D000232F342F4427585FF3CF4695379527950D
:1017E000A795F0405395C9F77EF41F16BA0B620B0C
:1017F000730B840BBAF09150A1F0FF0FBB1F661F53
:10180000771F881FC2F70EC0BA0F621F731F841F95
:1018100048F4879577956795B795F7959E3F08F0BB
:10182000B3CF9395880F08F09927EE0F979587957A
:101830000895D9D008F481E008950CD00FC107D1E4
:1018400040F0FED030F021F45F3F19F0F0C05111AC
:1018500039C1F3C014D198F39923C9F35523B1F3D7
:10186000951B550BBB27AA2762177307840738F00F
:101870009F5F5F4F220F331F441FAA1FA9F333D06E
:101880000E2E3AF0E0E830D091505040E695001C22
:10189000CAF729D0FE2F27D0660F771F881FBB1FDE
:1018A000261737074807AB07B0E809F0BB0B802DB8
:1018B000BF01FF2793585F4F2AF09E3F510568F004
:1018C000B6C000C15F3FECF3983EDCF38695779598
:1018D0006795B795F7959F5FC9F7880F911D969506
:1018E000879597F90895E1E0660F771F881FBB1F62
:1018F000621773078407BA0720F0621B730B840B0F
:10190000BA0BEE1F88F7E095089504D06894B111E2
:10191000D9C00895BCD088F09F5790F0B92F99276F
:10192000B751A0F0D1F0660F771F881F991F1AF0EA
:10193000BA95C9F712C0B13081F0C3D0B1E00895B3
:10194000C0C0672F782F8827B85F39F0B93FCCF334
:10195000869577956795B395D9F73EF490958095E0
:10196000709561957F4F8F4F9F4F0895E89409C000
:1019700097FB3EF490958095709561957F4F8F4FC2
:101980009F4F9923A9F0F92F96E9BB279395F695D8
:10199000879577956795B795F111F8CFFAF4BB0F56
:1019A00011F460FF1BC06F5F7F4F8F4F9F4F16C0BA
:1019B000882311F096E911C0772321F09EE8872F44
:1019C000762F05C0662371F096E8862F70E060E000
:1019D0002AF09A95660F771F881FDAF7880F969579
:1019E000879597F90895990F0008550FAA0BE0E81D
:1019F000FEEF16161706E807F907C0F012161306D1
:101A0000E407F50798F0621B730B840B950B39F410
:101A10000A2661F0232B242B252B21F408950A2676
:101A200009F4A140A6958FEF811D811D089597F9B6
:101A30009F6780E870E060E008959FEF80EC089574
:101A400000240A941616170618060906089500249D
:101A50000A9412161306140605060895092E039417
:101A6000000C11F4882352F0BB0F40F4BF2B11F48B
:101A700060FF04C06F5F7F4F8F4F9F4F089557FDEA
:101A80009058440F551F59F05F3F71F04795880FEC
:101A900097FB991F61F09F3F79F087950895121683
:101AA00013061406551FF2CF4695F1DF08C016162F
:101AB00017061806991FF1CF8695710561050894E0
:101AC0000895E894BB2766277727CB0197F90895F7
:101AD0008ADF08F48FEF08950BD0C0CFB1DF28F074
:101AE000B6DF18F0952309F0A2CFA7CF1124EACFD3
:101AF000C6DFA0F3959FD1F3950F50E0551F629F6D
:101B0000F001729FBB27F00DB11D639FAA27F00D56
:101B1000B11DAA1F649F6627B00DA11D661F829F7D
:101B20002227B00DA11D621F739FB00DA11D621F62
:101B3000839FA00D611D221F749F3327A00D611D7F
:101B4000231F849F600D211D822F762F6A2F112461
:101B50009F5750408AF0E1F088234AF0EE0FFF1FB4
:101B6000BB1F661F771F881F91505040A9F79E3FEB
:101B7000510570F05CCFA6CF5F3FECF3983EDCF3ED
:101B8000869577956795B795F795E7959F5FC1F728
:101B9000FE2B880F911D9695879597F9089523DF61
:101BA000880B990B0895CF93DF938230910510F441
:101BB00082E090E0E0910503F091060320E030E040
:101BC000A0E0B0E0309739F14081518148175907C2
:101BD000B8F04817590771F482819381109729F062
:101BE00013969C938E9312972CC090930603809328
:101BF000050327C02115310531F04217530718F0AE
:101C0000A901DB0101C0EF019A01BD01DF010280E2
:101C1000F381E02DD7CF21153105F9F0281B390BC1
:101C20002430310580F48A819B816115710521F092
:101C3000FB019383828304C0909306038093050382
:101C4000FE01329644C0FE01E20FF31F819391938F
:101C500022503109398328833AC0209103033091FF
:101C60000403232B41F420910202309103023093AC
:101C700004032093030320910002309101022115F7
:101C8000310541F42DB73EB7409104025091050251
:101C9000241B350BE0910303F0910403E217F307D3
:101CA000A0F42E1B3F0B2817390778F0AC014E5FCC
:101CB0005F4F2417350748F04E0F5F1F5093040302
:101CC000409303038193919302C0E0E0F0E0CF01E1
:101CD000DF91CF910895CF93DF93009709F487C0E8
:101CE000FC01329713821282C0910503D091060342
:101CF000209781F420813181280F391F80910303BF
:101D0000909104038217930779F5F0930403E0930D
:101D100003036DC0DE0120E030E0AE17BF0750F4D2
:101D200012964D915C9113979D014115510509F152
:101D3000DA01F3CFB383A28340815181840F951FD1
:101D40008A179B0771F48D919C911197840F951FB1
:101D500002969183808312968D919C911397938321
:101D600082832115310529F4F0930603E0930503DE
:101D70003EC0D9011396FC93EE9312974D915D915D
:101D8000A40FB51FEA17FB0779F480819181840FB6
:101D9000951F0296D90111969C938E93828193810F
:101DA00013969C938E931297E0E0F0E08A819B81DA
:101DB000009719F0FE01EC01F9CFCE0102962881BF
:101DC0003981820F931F2091030330910403281758
:101DD000390769F4309729F410920603109205032D
:101DE00002C013821282D0930403C0930303DF91D5
:081DF000CF910895F894FFCF94
:101DF800000007038000010000006B6579626F61D5
:101E0800726452617465203A200020487A00020307
:101E18000400000000D5054907280541053305B32E
:101E2800050D0A006E616E00696E66006F766600C9
:021E38002E007A
:00000001FF
