:100000000C944C010C947D010C947D010C947D01A9
:100010000C947D010C947D010C947D010C947D0168
:100020000C947D010C947D010C947D010C947D0158
:100030000C947D010C947D010C947D010C947D0148
:100040000C947D010C947D010C947D010C947D0138
:100050000C947D010C947D010C947D010C94460759
:100060000C947D010C942A060C9460060C947D017E
:100070000C947D010C947D010C947D010C947D0108
:100080000C947D010C947D010C947D010C947D01F8
:100090000C947D010C947D010C947D010C947D01E8
:1000A0000C947D010C947D010C947D010C947D01D8
:1000B0000C947D010C947D010C947D010C947D01C8
:1000C0000C947D010C947D010C947D010C947D01B8
:1000D0000C947D010C947D010C947D010C947D01A8
:1000E0000C947D0117081A0809080D081308510817
:1000F0001E08220828082C08300836083A083E084E
:100100005108440848084C080C9451080C941E08E7
:100110000C94E3040C94B6040C9436080C944C082C
:100120000C9430080C9463050C9409080C948A060E
:100130000C94C1040C942C080C94D7060C941A0847
:100140000C940D080C9417080C9413080C94AF042D
:100150000C943E080C94CF040C9448080C9444086A
:100160000C9428080C9441050C9422080C943A082D
:100170000C94940600000A0B02090C0D0E080703EC
:10018000040100000000000000000000000000006A
:10019000000000000000000000000000000000005F
:1001A000121110000000000000000000000000001C
:1001B00000000000000000000000010210202008E4
:1001C00008102040102040800201020108040201B2
:1001D0000102040810204080804020100804020121
:1001E000800402018040201008040201080402017A
:1001F0000102040810204080010204081020408001
:1002000005050505070508080808020202020A0A92
:1002100008080404040401010101010101010303B0
:10022000030303030303040707070C0C0C0C0C0C5B
:100230000C0C0202020206060606060606060B0B58
:100240000B0B0B0B0B0B00002000230026002900DA
:100250002C002F00320000010000030106010901FB
:1002600000002200250028002B002E003100340061
:1002700002010000050108010B010000210024001B
:1002800027002A002D003000330001010000040186
:1002900007010A01AF04940611241FBECFEFD1E27B
:1002A000DEBFCDBF00E00CBF12E0A0E0B2E0E0E6B0
:1002B000F5E100E00BBF02C007900D92A832B10734
:1002C000D9F722E0A8E2B2E001C01D92AD3DB2072D
:1002D000E1F712E0C8E9D2E000E006C02297010988
:1002E000FE010BBF0E946009C439D10780E00807F6
:1002F000A9F70E94A0040C94AE0A0C940000DC0143
:10030000ED91FC910190F081E02D1994FC0188E5BC
:1003100082874187708767830895CF93DF93EC01CD
:100320008A8186958D839A85981708F49D838D819F
:1003300028E0829FC00111240E9487099C838B833F
:1003400080E09D818917A0F4EB81FC8198E0899F72
:10035000E00DF11D11249A859C5E981B808391838A
:100360001282138215821482178216828F5FE9CF60
:10037000DF91CF9108954F925F926F927F92AF92EB
:10038000BF92CF92DF92EF92FF920F931F93CF9382
:100390002A013B011F921F921F92CFE7CF936AE081
:1003A000A62EB12CC12CD12C14E8E12E13E0F12E95
:1003B00000E010E020E030E0A901C301B2010E949A
:1003C000FF060F900F900F900F9097FF1FC01F9286
:1003D0001F921F92CFE7CF934AE0A42EB12CC12CDD
:1003E000D12C14E8E12E13E0F12E00E010E020E023
:1003F00030E0A901C301B2010E94FF060F900F90E7
:100400000F900F9097FF23C080E03CC01F921F9277
:100410001F92CF932AE0A22EB12CC12CD12C14E82C
:10042000E12E13E0F12E00E010E020E030E0A90121
:10043000C301B2010E94FF060F900F900F900F9022
:10044000603871058105910514F28FE71BC01F927A
:100450001F921F92CF938AE0A82EB12CC12CD12CD1
:1004600014E8E12E13E0F12E00E010E020E030E08F
:10047000A901C301B2010E94FF060F900F900F90D7
:100480000F90862FCF911F910F91FF90EF90DF90EB
:10049000CF90BF90AF907F906F905F904F900895F6
:1004A000FC01868190E0860F911D618570E00E94BD
:1004B000FA080780F085E02DE80FF91F8081089584
:1004C0006F927F929F92AF92BF92CF92DF92EF9204
:1004D000FF920F931F93CF93DF93EC011E82E12CC9
:1004E000F12CB12CAA24A394898590E0E816F90692
:1004F0000CF084C010E0212F30E0898590E0019756
:10050000612F2817390744F4CE010E94500260E0A1
:100510000E948B081F5FEFCFCE010E94500261E066
:100520000E948B0810E0212F30E0898590E0019730
:10053000281739074CF4612FCE010E94500260E069
:100540000E9452081F5FEFCF9B2C692D6B19262F3D
:1005500030E0898590E0019728173907ACF58CE0E9
:10056000989E80011124E881F981E00FF11F6280DB
:10057000712CCE010E9450020E94C108C880D9800F
:1005800068167906D9F0C00ED11EF601A3828481C7
:100590009581A681B78180879187A287B3870E94C2
:1005A0009007F6016483758386839783E881F981D8
:1005B000E00FF11F82818A25828304C0F601E00FDB
:1005C000F11F13829394C1CF10E0212F30E0898571
:1005D00090E00197281739074CF4612FCE010E9453
:1005E000500261E00E9452081F5FEFCF8E818F5F43
:1005F0008E83FFEFEF1AFF0AB92C76CFDF91CF91F0
:100600001F910F91FF90EF90DF90CF90BF90AF9030
:100610009F907F906F900895BF92CF92DF92EF925C
:10062000FF920F931F93CF93DF93EC0189859FEF88
:10063000980F989F802D11248A832CE0829FC001FF
:1006400011240E94870999838883B12C8A81B81666
:10065000E0F4088119818CE0B89E000D111D112471
:100660000E9490076B017C010E949007F801B08204
:10067000118212821382C482D582E682F782608759
:10068000718782879387B394E1CFCE01DF91CF91B9
:100690001F910F91FF90EF90DF90CF90BF900C943F
:1006A0006002EF92FF920F931F93CF93DF93EC01C1
:1006B00008811981F12CEE24E3948D81F816D0F590
:1006C000CE010E94600220E08A812817B0F73CE04A
:1006D000239FC0011124E881F981E80FF91F3381BC
:1006E000332331F142813181411111C0311120C0D8
:1006F000D801A80FB91FEB81FC8188E0F89EE00DBE
:10070000F11D1124B783A6831196EC9211C031110B
:100710000FC0D801A80FB91FEB81FC8138E0F39E10
:10072000E00DF11D1124B583A4831196EC92F3948E
:100730002F5FCACFDF91CF911F910F91FF90EF9064
:100740000895CF93DF93EC0126E040E855E260E0A6
:1007500070E083E392E00E94C80583E392E00E9488
:100760004105CE010E940C03CE010E948D01CE01F5
:10077000DF91CF910C9451031F93CF93DF931F927E
:10078000CDB7DEB7162F61E970E083E392E04983CD
:100790000E947F01612F83E392E00E9463054981FB
:1007A000642F83E392E00F90DF91CF911F910C941F
:1007B00063051F93CF93DF931F92CDB7DEB7162F3C
:1007C00061E870E083E392E049830E947F01612F3A
:1007D00083E392E00E9463054981642F83E392E002
:1007E0000F90DF91CF911F910C946305CF92DF9210
:1007F000EF92FF920F931F93CF93DF93EC01D12CD5
:10080000CC24C3948D81D81608F084C008E0D09E13
:1008100070011124EB81FC81EE0DFF1D24813581D7
:10082000D90113968C911397882391F112968C918C
:10083000882371F146815781DA0112968C918111DA
:1008400027C06281F90184819581A681B7816623E1
:1008500029F0408551856285738505C0FA01448180
:100860005581668177818C019D01041B150B260B38
:10087000370BB901A801CE010E94BB01EB81FC81BD
:10088000EE0DFF1DC282482F6181CE010E94BC0384
:10089000EB81FC81EE0DFF1D66817781DB011396F4
:1008A0008C918823A9F184819581DC0112962C9189
:1008B00021112EC0DB0112962C911297222341F1B7
:1008C000428114960D911D912D913C9117974111E4
:1008D00007C018968D919D910D90BC91A02D05C0DB
:1008E000FC0184819581A681B781B901A801481BCB
:1008F000590B6A0B7B0BCE010E94BB01EB81FC8183
:10090000EE0DFF1D1282482F6181CE010E94D90396
:10091000D39478CFDF91CF911F910F91FF90EF90FB
:10092000DF90CF900895089588E292E00C94A1039F
:1009300088E292E00E94600288E292E00C94F60362
:100940000E949C070E9493040E949404C3EED4E08A
:100950000E9498042097E1F30E94E304F9CF4EE04F
:100960006AE072E088E292E00C948601FC01818DDD
:10097000228D90E0805C9F4F821B91098F73992795
:100980000895FC01918D828D981731F0828DE80FCA
:10099000F11D858D90E008958FEF9FEF0895FC0184
:1009A000918D828D981761F0828DDF01A80FB11DA6
:1009B0005D968C91928D9F5F9F73928F90E00895CA
:1009C0008FEF9FEF08958AE896E0892B41F080E051
:1009D00090E0892B21F00E948A06811125C080E0D9
:1009E00090E0892B41F080E090E0892B21F00E947B
:1009F000000081111CC080E090E0892B41F080E074
:100A000090E0892B21F00E940000811113C080E04A
:100A100090E0892BA1F080E090E0892B81F00E948A
:100A2000000081110AC008950E940000D8CF0E94E2
:100A30000000E1CF0E940000EACF0C94000008956E
:100A4000FC01848DDF01A80FB11DA35ABF4F2C916B
:100A5000848D90E001968F739927848FA689B7893A
:100A60002C93A089B1898C9180648C93938D848D13
:100A7000981306C00288F389E02D80818F7D8083E2
:100A80000895CF93DF93EC01888D8823C9F0EA891C
:100A9000FB89808185FD05C0A889B9898C9186FD77
:100AA0000FC00FB607FCF5CF808185FFF2CFA88974
:100AB000B9898C9185FFEDCFCE010E942005E7CF4B
:100AC000DF91CF910895CF92DF92FF920F931F9302
:100AD000CF93DF931F92CDB7DEB76C0181E0D601D3
:100AE00058968C9358975B969C915B975C968C91EB
:100AF0005C97981307C05096ED91FC9151978081B7
:100B000085FD2EC0F601038D10E00F5F1F4F0F73A0
:100B10001127F02EF601848DF81211C00FB607FCD4
:100B2000F9CFD6015096ED91FC915197808185FFC8
:100B3000F1CFC60169830E9420056981EBCF838DC7
:100B4000E80FF11DE35AFF4F6083D6015B960C93CB
:100B50005B975296ED91FC915397808180620CC017
:100B6000D6015696ED91FC91579760835096ED9182
:100B7000FC91519780818064808381E090E00F90A8
:100B8000DF91CF911F910F91FF90DF90CF9008954B
:100B9000BF92CF92DF92EF92FF92CF93DF93EC015F
:100BA0006A017B01B22EE889F98982E080834115D0
:100BB00081EE580761057105A1F060E079E08DE3F1
:100BC00090E0A70196010E940E09215031094109C8
:100BD00051095695479537952795211580E1380796
:100BE00098F0E889F989108260E874E88EE190E075
:100BF000A70196010E940E092150310941095109AE
:100C00005695479537952795EC85FD853083EE857C
:100C1000FF852083188EEC89FD89B082EA89FB89E3
:100C2000808180618083EA89FB89808188608083FC
:100C3000EA89FB89808180688083EA89FB898081D9
:100C40008F7D8083DF91CF91FF90EF90DF90CF90E9
:100C5000BF9008951F920F920FB60F9211240BB6FA
:100C60000F922F938F939F93EF93FF93E091430203
:100C7000F09144028081E0914902F0914A0282FDA4
:100C800012C0908180914C028F5F8F7320914D0232
:100C9000821751F0E0914C02F0E0ED5CFD4F958F32
:100CA00080934C0201C08081FF91EF919F918F91C1
:100CB0002F910F900BBE0F900FBE0F901F901895A5
:100CC0001F920F920FB60F9211240BB60F922F9313
:100CD0003F934F935F936F937F938F939F93AF93C4
:100CE000BF93EF93FF9383E392E00E942005FF916F
:100CF000EF91BF91AF919F918F917F916F915F9194
:100D00004F913F912F910F900BBE0F900FBE0F9000
:100D10001F90189583E392E00E94B60421E0892B8E
:100D200009F420E0822F08951092360210923502C5
:100D300088EE93E0A0E0B0E0809337029093380211
:100D4000A0933902B0933A028CE192E0909334027E
:100D50008093330285EC90E09093400280933F02B1
:100D600084EC90E0909342028093410280EC90E00A
:100D7000909344028093430281EC90E0909346026A
:100D80008093450282EC90E0909348028093470262
:100D900086EC90E090934A028093490210924C02B4
:100DA00010924D0210924E0210924F020895CF926F
:100DB000DF92EF92FF920F931F93CF93DF937C010B
:100DC0006A01EB0100E010E00C151D0571F069915E
:100DD000D701ED91FC910190F081E02DC7011995AB
:100DE000892B19F00F5F1F4FEFCFC801DF91CF9113
:100DF0001F910F91FF90EF90DF90CF9008954F9249
:100E00005F926F927F92AF92BF92CF92DF92EF92FA
:100E1000FF920F931F93CF93DF93CDB7DEB72901D6
:100E20003A01621B730B840B950B2A893B894C8911
:100E30005D892A193B094C095D092A8B3B8B4C8B38
:100E40005D8B9B01AC016A897B898C899D890E949D
:100E5000EA08E418F50806091709A80197010E9495
:100E600030092A0D3B1D4C1D5D1DCA01B901DF91E2
:100E7000CF911F910F91FF90EF90DF90CF90BF9097
:100E8000AF907F906F905F904F9008951F920F9258
:100E90000FB60F9211242F933F938F939F93AF938D
:100EA000BF938091D1029091D202A091D302B091D0
:100EB000D4023091D00223E0230F2D3720F4019685
:100EC000A11DB11D05C026E8230F0296A11DB11D6D
:100ED0002093D0028093D1029093D202A093D302A8
:100EE000B093D4028091D5029091D602A091D702FE
:100EF000B091D8020196A11DB11D8093D5029093A7
:100F0000D602A093D702B093D802BF91AF919F9120
:100F10008F913F912F910F900FBE0F901F901895BA
:100F20002FB7F8946091D1027091D2028091D302D0
:100F30009091D4022FBF0895789484B5826084BDC7
:100F400084B5816084BD85B5826085BD85B58160CD
:100F500085BDEEE6F0E0808181608083E1E8F0E02D
:100F60001082808182608083808181608083E0E85C
:100F7000F0E0808181608083E1EBF0E0808184603B
:100F80008083E0EBF0E0808181608083E1E9F0E044
:100F9000808182608083808181608083E0E9F0E0ED
:100FA000808181608083E1EAF0E0808182608083DB
:100FB000808181608083E0EAF0E0808181608083CD
:100FC000E1E2F1E0808182608083808181608083C2
:100FD000E0E2F1E0808181608083EAE7F0E08081F7
:100FE000846080838081826080838081816080834F
:100FF0008081806880831092C100089590E0FC0198
:101000003197E231F10508F04CC0EE58FF4F0C94D7
:101010004F09809180008F7703C0809180008F7D81
:1010200080938000089580918000877FF9CF84B5F8
:101030008F7702C084B58F7D84BD08958091B00004
:101040008F7703C08091B0008F7D8093B0000895AA
:10105000809190008F7707C0809190008F7D03C0B2
:1010600080919000877F8093900008958091A000E8
:101070008F7707C08091A0008F7D03C08091A00072
:10108000877F8093A0000895809120018F7707C00B
:10109000809120018F7D03C080912001877F809304
:1010A00020010895CF93DF9390E0FC01E654FE4FBA
:1010B0002491FC01E050FE4F8491882349F190E097
:1010C000880F991FFC01E658FD4FA591B491805AF5
:1010D0009D4FFC01C591D4919FB7611108C0F89450
:1010E0008C91209582238C93888182230AC0623060
:1010F00051F4F8948C91322F309583238C9388810E
:10110000822B888304C0F8948C91822B8C939FBF90
:10111000DF91CF9108950F931F93CF93DF931F9289
:10112000CDB7DEB7282F30E0F901EC58FE4F84919F
:10113000F901E654FE4F1491F901E050FE4F04917D
:101140000023C9F0882321F069830E94FE0769818A
:10115000E02FF0E0EE0FFF1FE05AFD4FA591B49194
:101160009FB7F8948C91611103C01095812301C041
:10117000812B8C939FBF0F90DF91CF911F910F9187
:101180000895CF93DF93282F30E0F901EC58FE4FFC
:101190008491F901E654FE4FD491F901E050FE4FDD
:1011A000C491CC2391F081110E94FE07EC2FF0E056
:1011B000EE0FFF1FEA5BFD4FA591B4912C912D23FB
:1011C00081E090E021F480E002C080E090E0DF91D7
:1011D000CF910895DB018F939F930E945509BF9192
:1011E000AF91A29F800D911DA39F900DB29F900D76
:1011F0001124089597FB072E16F4009407D077FD6D
:1012000009D00E94640907FC05D03EF490958195B1
:101210009F4F0895709561957F4F0895A1E21A2E12
:10122000AA1BBB1BFD010DC0AA1FBB1FEE1FFF1F8A
:10123000A217B307E407F50720F0A21BB30BE40BDA
:10124000F50B661F771F881F991F1A9469F7609521
:101250007095809590959B01AC01BD01CF010895DB
:10126000052E97FB1EF400940E94470957FD07D0F6
:101270000E940E0907FC03D04EF40C9447095095C8
:101280004095309521953F4F4F4F5F4F0895909572
:101290008095709561957F4F8F4F9F4F0895EE0F0A
:1012A000FF1F0590F491E02D19940E947809A59FE5
:1012B000900DB49F900DA49F800D911D1124089551
:1012C0000790F691E02D1994AA1BBB1B51E107C0B2
:1012D000AA1FBB1FA617B70710F0A61BB70B881FC6
:1012E000991F5A95A9F780959095BC01CD01089555
:1012F000A29FB001B39FC001A39F700D811D112457
:10130000911DB29F700D811D1124911D0895CF93E1
:10131000DF938230910510F482E090E0E091DB02EF
:10132000F091DC0220E030E0A0E0B0E0309739F14D
:101330004081518148175907B8F04817590771F48F
:1013400082819381109729F013969C938E93129724
:101350002CC09093DC028093DB0227C0211531055D
:1013600031F04217530718F0A901DB0101C0EF016A
:101370009A01BD01DF010280F381E02DD7CF211555
:101380003105F9F0281B390B2430310580F48A81AE
:101390009B816115710521F0FB019383828304C059
:1013A0009093DC028093DB02FE01329644C0FE0182
:1013B000E20FF31F819391932250310939832883DF
:1013C0003AC02091D9023091DA02232B41F42091C6
:1013D0000202309103023093DA022093D902209165
:1013E0000002309101022115310541F42DB73EB7BD
:1013F0004091040250910502241B350BE091D90263
:10140000F091DA02E217F307A0F42E1B3F0B281726
:10141000390778F0AC014E5F5F4F2417350748F06D
:101420004E0F5F1F5093DA024093D902819391933C
:1014300002C0E0E0F0E0CF01DF91CF910895CF93BB
:10144000DF93009709F487C0FC0132971382128260
:10145000C091DB02D091DC02209781F420813181A0
:10146000280F391F8091D9029091DA0282179307D1
:1014700079F5F093DA02E093D9026DC0DE0120E045
:1014800030E0AE17BF0750F412964D915C91139760
:101490009D014115510509F1DA01F3CFB383A28310
:1014A00040815181840F951F8A179B0771F48D919C
:1014B0009C911197840F951F0296918380831296B9
:1014C0008D919C911397938382832115310529F483
:1014D000F093DC02E093DB023EC0D9011396FC934B
:1014E000EE9312974D915D91A40FB51FEA17FB077C
:1014F00079F480819181840F951F0296D90111960C
:101500009C938E938281938113969C938E931297D2
:10151000E0E0F0E08A819B81009719F0FE01EC0188
:10152000F9CFCE01029628813981820F931F209135
:10153000D9023091DA022817390769F4309729F473
:101540001092DC021092DB0202C013821282D0934E
:10155000DA02C093D902DF91CF910895F894FFCFBA
:101560000000DD028000010000001A1C1E20222461
:1015700026282A2C2E303234000000006305D706BE
:08158000B604CF04C1044105CB
:00000001FF
